S013000045783033202D204C4344322E737265637F
S11300000C9434000C9449000C9449000C9449005D
S11300100C9449000C9449000C9449000C94490038
S11300200C9449000C9449000C9449000C94490028
S11300300C9449000C9449000C9449000C94490018
S11300400C9449000C9449000C9449000C94490008
S11300500C9449000C9449000C9449000C944900F8
S11300600C9449000C94490011241FBECFEFD8E032
S1130070DEBFCDBF11E0A0E0B1E0E4EFF5E002C0E7
S113008005900D92A434B107D9F70E94BF020C94D5
S1130090F8020C940000672B09F0A1C08A30910586
S11300A021F485B18E7F85B908958B30910521F4B3
S11300B085B18D7F85B908958C30910521F485B182
S11300C08B7F85B908958D30910521F485B1877FA3
S11300D085B908958E30910521F485B18F7E85B957
S11300E008958F30910521F485B18F7D85B90895E8
S11300F08031910521F485B18F7B85B908958131D3
S1130100910521F485B18F7785B9089584319105DE
S113011021F488B18E7F88B908958531910521F441
S113012088B18D7F88B908958631910521F488B10D
S11301308B7F88B908958731910521F488B1877F31
S113014088B908958831910521F488B18F7E88B9E2
S113015008958931910521F488B18F7D88B9089576
S11301608A31910521F488B18F7B88B908958E3145
S1130170910521F48BB18E7F8BB908958F31910550
S113018021F48BB18D7F8BB908958032910521F4D0
S11301908BB18B7F8BB908958132910521F48BB19A
S11301A0877F8BB908958232910521F48BB18F7EBC
S11301B08BB908958332910521F48BB18F7D8BB96E
S11301C008958432910521F48BB18F7B8BB9089506
S11301D0859709F0A3C08BB18F778BB908958A30C6
S11301E0910521F485B1816085B908958B3091051D
S11301F021F485B1826085B908958C30910521F48C
S113020085B1846085B908958D30910521F485B157
S1130210886085B908958E30910521F485B1806197
S113022085B908958F30910521F485B1806285B92F
S113023008958031910521F485B1806485B90895CC
S11302408131910521F485B1806885B9089584319F
S1130250910521F488B1816088B9089585319105AB
S113026021F488B1826088B908958631910521F41A
S113027088B1846088B908958731910521F488B1E3
S1130280886088B908958831910521F488B1806126
S113029088B908958931910521F488B1806288B9BB
S11302A008958A31910521F488B1806488B908954C
S11302B08E31910521F48BB181608BB908958F3112
S11302C0910521F48BB182608BB908958032910538
S11302D021F48BB184608BB908958132910521F4A6
S11302E08BB188608BB908958232910521F48BB16A
S11302F080618BB908958332910521F48BB18062BA
S11303008BB908958432910521F48BB180648BB943
S11303100895859719F48BB180688BB90895CF93AC
S1130320C82F80FF07C061E070E083E290E00E9484
S11303304B0006C060E070E083E290E00E944B0056
S1130340C1FF07C061E070E082E290E00E944B00D0
S113035006C060E070E082E290E00E944B00C2FFC1
S113036007C061E070E081E290E00E944B0006C0AB
S113037060E070E081E290E00E944B00C3FF07C0A0
S113038061E070E080E290E00E944B0006C060E013
S113039070E080E290E00E944B00CF910895CF93EB
S11303A0C82F60E070E085E290E00E944B008C2F43
S11303B00E948F0161E070E084E290E00E944B00B3
S11303C08FE99FE00197F1F700C0000060E070E062
S11303D084E290E00E944B008FE99FE00197F1F7DF
S11303E000C00000CF91089580E00E94CF0181E019
S11303F00E94CF010895CF93813061F480E8860F85
S1130400C62FCF7082958F700E94CF018C2F0E94CF
S1130410CF010DC0823059F480EC860FC62FCF7007
S113042082958F700E94CF018C2F0E94CF01CF91B3
S113043008958AB180628AB98AB180618AB98AB121
S113044088608AB98AB184608AB98AB180688AB9B5
S11304508AB180648AB980E00E948F012FEF89EF0E
S113046090E0215080409040E1F700C0000083E01C
S11304700E94CF018FE19EE40197F1F700C00000D4
S113048083E00E94CF018FED9BEA0197F1F700C052
S1130490000083E00E94CF0182E00E94CF0182E04D
S11304A00E94CF0188E00E94CF0180E00E94CF012A
S11304B08CE00E94CF0180E00E94CF0186E00E9480
S11304C0CF010895CF93DF93D82FDF70C82FC07F5B
S11304D061E070E085E290E00E944B008C2F8295F1
S11304E08F700E948F0161E070E084E290E00E94CE
S11304F04B008FE99FE00197F1F700C0000060E036
S113050070E084E290E00E944B008FE99FE0019745
S1130510F1F700C000008D2F0E948F0161E070E0B0
S113052084E290E00E944B008FE99FE00197F1F78D
S113053000C0000060E070E084E290E00E944B00A4
S11305408FE99FE00197F1F700C00000DF91CF91A0
S113055008950F931F93CF93DF938C01C0E0D0E0F5
S113056003C00E9462022196F801EC0FFD1F8081F6
S11305708111F7CFDF91CF911F910F9108950E94C0
S1130580190260E081E00E94FB0180E091E00E949A
S1130590A90260E082E00E94FB0181E191E00E94F7
S11305A0A9022FEF87EA91E6215080409040E1F7BD
S11305B000C000000E94F40160E081E00E94FB01A1
S11305C082E291E00E94A90260E082E00E94FB01C5
S11305D083E391E00E94A9022FEF87EA91E621507C
S11305E080409040E1F700C000000E94F401C9CFB0
S10705F0F894FFCFA9
S11305F45A696C6F636368692020202020202020BE
S113060400202020202020456C6574726F6E69637D
S1130614610054657374652020202020202020204C
S113062420200020202020202020202044697370D2
S10706346C61790078
S9030000FC
