S0100000746573745F6C69622E73726563BE
S11300000C9435000C9452000C9452000C94520041
S11300100C9452000C9452000C9452000C94520014
S11300200C9452000C9452000C9452000C94520004
S11300300C9452000C9452000C9452000C945200F4
S11300400C9452000C9452000C9452000C945200E4
S11300500C9452000C9452000C9452000C945200D4
S11300600C9452000C945200650011241FBECFEF73
S1130070D8E0DEBFCDBF21E0A0E0B1E001C01D9219
S1130080A130B207E1F710E0C5E3D0E004C0219746
S1130090FE010E945102C433D107C9F70E945E00D9
S11300A00C9457020C940000019739F46F3F7F4F72
S11300B021F480E091E00E946C00089562E370E016
S11300C080E091E00E947000F9CF6FEF7FEF81E054
S11300D090E00E945400089584B1806284B9089528
S11300E08F929F92AF92BF92CF92DF92EF92FF9244
S11300F085B1806285B9072E000C880B990B0E948C
S11301002F014B015C0120E030E04AE755E40E94F6
S1130110BC016B017C0120E030E040E85FE30E9419
S1130120F90088231CF120E03FEF4FE757E4C701B3
S1130130B6010E94B7011816A4F420E030E040E2B2
S113014051E4C501B4010E94BC010E94FE00611586
S1130150710589F080E991E00197F1F76150710927
S1130160F6CFC701B6010E94FE0002C061E070E054
S1130170CB010197F1F785B18F7D85B920E030E09F
S113018040E85FE3C701B6010E94F90088231CF12F
S113019020E03FEF4FE757E4C701B6010E94B701E3
S11301A01816A4F420E030E040E251E4C501B401A3
S11301B00E94BC010E94FE006115710589F080E96E
S11301C091E00197F1F761507109F6CFC701B601CB
S11301D00E94FE0002C061E070E0CB010197F1F7DC
S11301E0FF90EF90DF90CF90BF90AF909F908F9053
S11301F008950E946A0108F481E008950E9496011E
S113020088F09F5798F0B92F9927B751B0F0E1F0D3
S1130210660F771F881F991F1AF0BA95C9F714C083
S1130220B13091F00E94B001B1E008950C94B00196
S1130230672F782F8827B85F39F0B93FCCF38695BC
S113024077956795B395D9F73EF490958095709519
S113025061957F4F8F4F9F4F0895E89409C097FB96
S11302603EF490958095709561957F4F8F4F9F4F89
S11302709923A9F0F92F96E9BB279395F6958795CD
S113028077956795B795F111F8CFFAF4BB0F11F490
S113029060FF1BC06F5F7F4F8F4F9F4F16C0882337
S11302A011F096E911C0772321F09EE8872F762F6D
S11302B005C0662371F096E8862F70E060E02AF0AE
S11302C09A95660F771F881FDAF7880F969587959A
S11302D097F90895990F0008550FAA0BE0E8FEEF6F
S11302E016161706E807F907C0F012161306E407F6
S11302F0F50798F0621B730B840B950B39F40A26EF
S113030061F0232B242B252B21F408950A2609F4CC
S1130310A140A6958FEF811D811D089557FD90582A
S1130320440F551F59F05F3F71F04795880F97FBB5
S1130330991F61F09F3F79F087950895121613066F
S11303401406551FF2CF4695F1DF08C0161617069E
S11303501806991FF1CF86957105610508940895D3
S1130360E894BB2766277727CB0197F908950E9465
S11303706A0108F48FEF08950E94CF010C944002A3
S11303800E94320238F00E94390220F0952311F0C5
S11303900C9429020C942F0211240C94B1010E9494
S11303A08E0170F3959FC1F3950F50E0551F629F26
S11303B0F001729FBB27F00DB11D639FAA27F00DBA
S11303C0B11DAA1F649F6627B00DA11D661F829FE1
S11303D02227B00DA11D621F739FB00DA11D621FC6
S11303E0839FA00D611D221F749F3327A00D611DE3
S11303F0231F849F600D211D822F762F6A2F1124C5
S11304009F5750409AF0F1F088234AF0EE0FFF1FF7
S1130410BB1F661F771F881F91505040A9F79E3F4E
S1130420510580F00C9429020C94B1015F3FE4F370
S1130430983ED4F3869577956795B795F795E795A4
S11304409F5FC1F7FE2B880F911D9695879597F9AD
S1130450089597F99F6780E870E060E008959FEF42
S113046080EC089500240A94161617061806090647
S1130470089500240A941216130614060506089516
S1130480092E0394000C11F4882352F0BB0F40F49E
S1130490BF2B11F460FF04C06F5F7F4F8F4F9F4FDE
S11304A00895EE0FFF1F0590F491E02D0994F89440
S10504B0FFCF78
S9030000FC
