:100000000C9434000C9449000C9449000C94490061
:100010000C9449000C9449000C9449000C9449003C
:100020000C9449000C9449000C9449000C9449002C
:100030000C9449000C9449000C9449000C9449001C
:100040000C9449000C9449000C9449000C9449000C
:100050000C9449000C9449000C9449000C944900FC
:100060000C9449000C94490011241FBECFEFD8E036
:10007000DEBFCDBF11E0A0E0B1E0E2E0F2E002C0FF
:1000800005900D92A232B107D9F70E94EC000C94B2
:10009000FF000C9400008BB180628BB985E08A95DB
:1000A000F1F700008BB18F7D8BB908959BB1907FE4
:1000B0009BB99BB182958F70982B9BB90E944B0086
:1000C0000895CF93C82F8BB180618BB98C2F0E947C
:1000D00056008C2F8295807F0E94560085EF8A956E
:1000E000F1F70000CF910895CF93C82F8BB18F7E89
:1000F0008BB98C2F0E9456008C2F8295807F0E9496
:10010000560080EE8A95F1F7CF91089581E00E9424
:1001100074008FE39FE10197F1F700C0000008959C
:100120008AB18F638AB98BB1807C8BB98FE59AEEE7
:100130000197F1F700C0000080E30E9456008FE1B4
:100140009EE40197F1F700C000000E944B008FE988
:100150009FE00197F1F700C000000E944B008FE97B
:100160009FE00197F1F700C0000080E20E94560076
:100170008FE19EE40197F1F700C0000088E20E9441
:1001800074008CE00E94740086E00E9474000E945B
:1001900086000895623059F018F4613031F0089506
:1001A000633039F0643039F00895805805C08054C8
:1001B00003C0805701C080530E9474000895CF93FC
:1001C000DF93EC0103C021960E94610088818111B8
:1001D000FACFDF91CF9108950E94900061E080E016
:1001E0000E94CA0080E091E00E94DF0062E080E0AF
:1001F0000E94CA0081E191E00E94DF00FFCFF894E5
:02020000FFCF2E
:10020200202020205A696C6F6363686920202020B7
:1002120000202020456C6574726F6E696361202036
:020222002000BA
:00000001FF
