S00B00004C43442E7372656346
S113000012C024C023C022C021C020C01FC01EC0F3
S11300101DC01CC01BC01AC019C018C017C016C010
S113002015C014C013C011241FBECFE5D4E0DEBF39
S1130030CDBF10E0A0E6B0E0EEEBF1E002C0059029
S11300400D92A637B107D9F7AAD0B7C0D9CF969ADF
S113005000C096980895CF93DF93D82F662311F0AC
S1130060949A01C09498959881B38F6081BBC2B370
S1130070C07F8D2F82958F708C2B82BBE8DFDF7061
S1130080DC2BD2BBE4DFCF60C2BBDF91CF910895FC
S1130090882311F0949A01C09498959A81B3807F33
S11300A081BB969A00C090B3969800C0969A00C0FF
S11300B020B32F70892F8295807F9698822B089584
S11300C080E0E6DF8823E4F388E090E00197F1F72D
S11300D080E0DEDF0895CF93C82FF2DF60E08C2F3D
S11300E0BADFCF910895611103C08058F4DF0895F9
S11300F08054F1DF089581E0EEDF089582E0EBDFC4
S11301000895CF93C82FDCDFCA3041F4803410F057
S113011080E001C080E48058DEDF03C061E08C2F02
S11301209ADFCF910895CF93DF93EC012196FC01E0
S11301308081882321F0E5DF89918111FCCFDF9153
S1130140CF9108951F93CF93DF93182F81B38F67B7
S113015081BB80E09AEF0197F1F7919A909A77DF4B
S113016080E09EE40197F1F772DFC0E0D1E0CE01B8
S11301700197F1F76CDFCE010197F1F7909867DFF3
S11301802197F1F788E2A7DF88E0A5DFB4DF86E0F6
S1130190A2DF812FA0DFDF91CF911F9108958EE020
S11301A0D1DFA9DFABDF80E690E0BDDF61E080E076
S11101B09ADF86E690E0B7DFFFCFF894FFCF2A
S11301BE68656C6C6F004D6563686174726F6E690F
S10901CE63736C61620022
S9030000FC
