S00C0000457830312E73726563FA
S11300000C9434000C943E000C943E000C943E007E
S11300100C943E000C943E000C943E000C943E0064
S11300200C943E000C943E000C943E000C943E0054
S11300300C943E000C943E000C943E000C943E0044
S11300400C943E000C943E000C943E000C943E0034
S11300500C943E000C943E000C943E000C943E0024
S11300600C943E000C943E0011241FBECFEFD8E048
S1130070DEBFCDBF0E9440000C945D000C940000D4
S11300808FE384B98CEF8AB98FE385B98CEF8BB990
S11300902FEF89E698E1215080409040E1F700C0BD
S11300A0000015B81BB82FEF89E698E12150804075
S11100B09040E1F700C00000E7CFF894FFCFC6
S9030000FC
