:100000000C942A000C943F000C943F000C943F0089
:100010000C943F000C943F000C943F000C943F0064
:100020000C943F000C943F000C943F000C943F0054
:100030000C943F000C943F000C943F000C943F0044
:100040000C943F000C943F000C943F000C943F0034
:100050000C943F0011241FBECFE5D4E0DEBFCDBF1E
:1000600010E0A0E6B0E0E6E2F8E002C005900D92F4
:10007000A038B107D9F70E94E3030C9411040C9443
:10008000000082B3846082BB00C082B38B7F82BBDE
:100090000895CF93C82F662321F082B3816082BB7D
:1000A00003C082B38E7F82BB82B38D7F82BB81B35C
:1000B000806181BB81B3806281BB81B3806481BB7D
:1000C00081B3806881BB82B38F7782BB82B38F7B21
:1000D00082BB82B38F7D82BB82B38F7E82BBCC23F7
:1000E0001CF482B3806882BBC6FF03C082B3806405
:1000F00082BBC5FF03C082B3806282BBC4FF03C062
:1001000082B3806182BB0E94410082B38F7782BB41
:1001100082B38F7B82BB82B38F7D82BB82B38F7EA3
:1001200082BBC3FF03C082B3806882BBC2FF03C02F
:1001300082B3806482BBC1FF03C082B3806282BB92
:10014000C0FF03C082B3806182BB0E94410082B3C2
:10015000806182BB82B3806282BB82B3806482BBD7
:1001600082B3806882BBCF910895882321F082B347
:10017000816082BB03C082B38E7F82BB82B3826008
:1001800082BB81B38F7E81BB81B38F7D81BB81B305
:100190008F7B81BB81B38F7781BB82B3846082BB4D
:1001A00000C0849902C080E001C080E1859980622E
:1001B000869980648799806892B39B7F92BB00C0C8
:1001C00092B3946092BB00C08499816085998260EB
:1001D000869984608799886092B39B7F92BB0895CB
:1001E00080E00E94B5008823DCF384E090E0019772
:1001F000F1F780E00E94B5000895CF93C82F0E94C8
:10020000F00060E08C2F0E944900CF9108956111A9
:1002100004C080580E94FD00089580540E94FD0093
:100220000895CF93C82F0E94F000CA3049F480345B
:1002300010F480E401C080E080580E94FD0004C0FA
:1002400061E08C2F0E944900CF910895CF93DF93F6
:10025000FC0103C00E941101FE01EF012196808183
:100260008111F8CFDF91CF9108951F93CF93DF9342
:10027000182F81B3816081BB81B3826081BB81B360
:10028000846081BB81B3806181BB81B3806281BBAB
:1002900081B3806481BB81B3806881BB80E09DE7CE
:1002A0000197F1F782B3806282BB82B3806182BB27
:1002B0000E94410080E097E20197F1F70E9441001F
:1002C000C0E8D0E0CE010197F1F70E944100CE01D5
:1002D0000197F1F782B38F7E82BB0E944100219784
:1002E000F1F788E20E94FD0088E00E94FD0086E0B0
:1002F0000E94FD00812F0E94FD00DF91CF911F9190
:10030000089587B3816087BB87B3826087BB87B35B
:10031000846087BB87B3886087BB87B38F7E87BBCA
:1003200087B38F7D87BB87B38F7B87BB87B38F777F
:1003300087BB88B3806188BB88B3806288BB88B381
:10034000806488BB88B3806888BB88B3816088BBC1
:1003500088B3826088BB88B3846088BB88B38860B8
:1003600088BB0895882311F084E701C086E698B31E
:100370009E7F98BB26B330E02F6E3F6F209530955F
:10038000A901559547955595479555954795559587
:10039000479596B3292F30E02F6D3F6F209530950C
:1003A0003595279535952795359527953595279535
:1003B00035952795220F331F242B352B46B350E05C
:1003C0004F6B5F6F40955095042E452F000C441FD6
:1003D000550B000C441F551F440F551F440F551F4C
:1003E000242B352B46B350E04F675F6F40955095F7
:1003F000440F452F441F550B440F551F440F551FE5
:10040000440F551F242B352B22303105B9F024F42D
:100410002130310541F032C024303105D1F028308F
:10042000310511F12BC02FEF83EC99E02150804072
:100430009040E1F700C0000087E320C02FEF83EC7D
:1004400099E0215080409040E1F700C0000084E333
:1004500015C02FEF83EC99E0215080409040E1F7E8
:1004600000C0000081E30AC02FEF83EC99E0215027
:1004700080409040E1F700C000008EE298B39160A8
:1004800098BB98B39D7F98BB26B330E02F6E3F6F2B
:1004900020953095A90155954795559547955595C2
:1004A00047955595479596B3292F30E02F6D3F6FAF
:1004B0002095309535952795359527953595279530
:1004C0003595279535952795220F331F242B352BEE
:1004D00046B350E04F6B5F6F40955095042E452F0B
:1004E000000C441F550B000C441F551F440F551F93
:1004F000440F551F242B352B46B350E04F675F6FD9
:1005000040955095440F452F441F550B440F551FE0
:10051000440F551F440F551F242B352B2230310516
:10052000B9F024F42130310541F032C024303105D6
:10053000D1F02830310511F12BC02FEF83EC99E079
:10054000215080409040E1F700C0000088E320C0C7
:100550002FEF83EC99E0215080409040E1F700C0FC
:10056000000085E315C02FEF83EC99E02150804017
:100570009040E1F700C0000082E30AC02FEF83EC57
:1005800099E0215080409040E1F700C0000080E3F6
:1005900098B3926098BB98B39B7F98BB26B330E02A
:1005A0002F6E3F6F20953095A9015595479555952C
:1005B0004795559547955595479596B3292F30E022
:1005C0002F6D3F6F2095309535952795359527955B
:1005D000359527953595279535952795220F331F06
:1005E000242B352B46B350E04F6B5F6F40955095F1
:1005F000042E452F000C441F550B000C441F551FA3
:10060000440F551F440F551F242B352B46B350E084
:100610004F675F6F40955095440F452F441F550B12
:10062000440F551F440F551F440F551F242B352BC6
:1006300022303105B9F024F42130310541F032C0C7
:1006400024303105D1F02830310511F12BC02FEFC6
:1006500083EC99E0215080409040E1F700C0000019
:1006600089E320C02FEF83EC99E021508040904037
:10067000E1F700C0000086E315C02FEF83EC99E09E
:10068000215080409040E1F700C0000083E30AC0A1
:100690002FEF83EC99E0215080409040E1F700C0BB
:1006A00000008DE398B3946098BB98B3977F98BB94
:1006B00026B330E02F6E3F6F20953095A9015595F8
:1006C000479555954795559547955595479596B3B3
:1006D000292F30E02F6D3F6F209530953595279568
:1006E00035952795359527953595279535952795F2
:1006F000220F331F242B352B46B350E04F6B5F6F17
:1007000040955095042E452F000C441F550B000CAE
:10071000441F551F440F551F440F551F242B352BC5
:1007200046B350E04F675F6F40955095440F452F9B
:10073000441F550B440F551F440F551F440F551FA1
:10074000242B352B22303105B9F024F4213031052A
:1007500041F032C024303105D1F02830310511F19B
:100760002BC02FEF83EC99E0215080409040E1F7BF
:1007700000C000008FE220C02FEF83EC99E02150F1
:1007800080409040E1F700C0000088E515C02FEFE1
:1007900083EC99E0215080409040E1F700C00000D8
:1007A0008DE20AC02FEF83EC99E021508040904009
:1007B000E1F700C000008BE298B3986098BB8437E3
:1007C00009F4D5CD08958FE00E9435010E94810182
:1007D00080E690E00E94260161E080E00E9407012F
:1007E000C0E0D0E081E00E94B2010E941101219698
:1007F000C031D105B9F72FEF89E698E1215080404B
:100800009040E1F700C0000061E080E00E94070135
:100810008EE690E00E94260161E080E00E940701E0
:06082000DFCFF894FFCFCA
:10082600446967697465207465636C613A002020C9
:1008360020202020202020202020202020200000F2
:00000001FF
