S0130000457830382D454550524F4D2E73726563F7
S11300000C94B5000C94D2000C94D2000C94D20041
S11300100C94D2000C94D2000C94D2000C94D20014
S11300200C94D2000C94D2000C94D2000C94D20004
S11300300C94D2000C94D2000C94D2000C94D200F4
S11300400C94D2000C94D2000C94D2000C94D200E4
S11300500C94D2000C94D2000C94D2000C94D200D4
S11300600C94D2000C94D2006E616E00696E66002E
S113007000407A10F35A00A0724E18090010A5D45B
S1130080E80000E87648170000E40B54020000CAB8
S11300909A3B000000E1F5050000809698000000FE
S11300A040420F000000A08601000000102700005D
S11300B00000E803000000006400000000000A00E3
S11300C0000000000100000000002C76D888DC67E6
S11300D04F0823DFC1DFAE59E1B1B796E5E3E4533E
S11300E0C63AE651997696E8E6C28426EB898C9B5B
S11300F062ED407C6FFCEFBC9C9F40F2BAA56FA5FB
S1130100F490055A2AF75C936B6CF9676DC11BFC7C
S1130110E0E40D47FEF520E6B500D0ED902E030097
S1130120943577050080841E080000204E0A0000E4
S113013000C80C333333330F986E12831141EF8DA3
S11301402114893BE65516CFFEE6DB18D1844B38E3
S11301501BF77C1D901DA4BBE424203284725E2214
S11301608100C9F124ECA1E53D2711241FBECFEF86
S1130170D8E0DEBFCDBF11E0A0E0B1E0EAE4F8E1F1
S113018002C005900D92A832B107D9F721E0A8E288
S1130190B1E001C01D92AC33B207E1F70E94090639
S11301A00C94230C0C9400006115710509F0A0C097
S11301B0009721F484B18E7F84B90895813091052C
S11301C021F484B18D7F84B908958230910521F49E
S11301D084B18B7F84B908958330910521F484B16F
S11301E0877F84B908958430910521F484B18F7E8A
S11301F084B908958530910521F484B18F7D84B943
S113020008958630910521F484B18F7B84B90895D3
S11302108730910521F484B18F7784B908958830AB
S1130220910521F487B18E7F87B9089589309105AE
S113023021F487B18D7F87B908958A30910521F41F
S113024087B18B7F87B908958B30910521F487B1ED
S1130250877F87B908958C30910521F487B18F7E0B
S113026087B908958D30910521F487B18F7D87B9C1
S113027008958E30910521F487B18F7B87B9089555
S11302808F30910521F48AB18E7F8AB90895803127
S1130290910521F48AB18D7F8AB908958131910540
S11302A021F48AB18B7F8AB908958231910521F4B2
S11302B08AB1877F8AB908958331910521F48AB17F
S11302C08F7E8AB908958431910521F48AB18F7D96
S11302D08AB908958531910521F48AB18F7B8AB951
S11302E00895469709F0A6C08AB18F778AB9089510
S11302F06130710509F09EC0009721F484B18160DA
S113030084B908958130910521F484B1826084B95F
S113031008958230910521F484B1846084B90895EC
S11303208330910521F484B1886084B908958430C0
S1130330910521F484B1806184B9089585309105D3
S113034021F484B1806284B908958630910521F442
S113035084B1806484B908958730910521F484B10F
S1130360806884B908958830910521F487B181604B
S113037087B908958930910521F487B1826087B9DE
S113038008958A30910521F487B1846087B908956E
S11303908B30910521F487B1886087B908958C303A
S11303A0910521F487B1806187B908958D30910555
S11303B021F487B1806287B908958E30910521F4C4
S11303C087B1806487B908958F30910521F48AB18B
S11303D081608AB908958031910521F48AB18260DF
S11303E08AB908958131910521F48AB184608AB96A
S11303F008958231910521F48AB188608AB90895FB
S11304008331910521F48AB180618AB908958431D8
S1130410910521F48AB180628AB9089585319105E4
S113042021F48AB180648AB90895469719F48AB18F
S113043080688AB908956115710509F0A0C0009714
S113044021F485B18E7F85B908958130910521F419
S113045085B18D7F85B908958230910521F485B1E8
S11304608B7F85B908958330910521F485B1877F09
S113047085B908958430910521F485B18F7E85B9BD
S113048008958530910521F485B18F7D85B908954E
S11304908630910521F485B18F7B85B90895873025
S11304A0910521F485B18F7785B908958830910538
S11304B021F488B18E7F88B908958930910521F49B
S11304C088B18D7F88B908958A30910521F488B167
S11304D08B7F88B908958B30910521F488B1877F8B
S11304E088B908958C30910521F488B18F7E88B93C
S11304F008958D30910521F488B18F7D88B90895D0
S11305008E30910521F488B18F7B88B908958F309E
S1130510910521F48BB18E7F8BB9089580319105BB
S113052021F48BB18D7F8BB908958131910521F42C
S11305308BB18B7F8BB908958231910521F48BB1F6
S1130540877F8BB908958331910521F48BB18F7E18
S11305508BB908958431910521F48BB18F7D8BB9CA
S113056008958531910521F48BB18F7B8BB9089562
S1130570469709F0A6C08BB18F778BB90895613087
S1130580710509F09EC0009721F485B1816085B999
S113059008958130910521F485B1826085B908956B
S11305A08230910521F485B1846085B90895833042
S11305B0910521F485B1886085B908958430910549
S11305C021F485B1806185B908958530910521F4C0
S11305D085B1806285B908958630910521F485B18D
S11305E0806485B908958730910521F485B18068C8
S11305F085B908958830910521F488B1816088B95E
S113060008958930910521F488B1826088B90895EC
S11306108A30910521F488B1846088B908958B30BB
S1130620910521F488B1886088B908958C309105CA
S113063021F488B1806188B908958D30910521F441
S113064088B1806288B908958E30910521F488B10B
S1130650806488B908958F30910521F48BB181604D
S11306608BB908958031910521F48BB182608BB9E7
S113067008958131910521F48BB184608BB908957B
S11306808231910521F48BB188608BB9089583314F
S1130690910521F48BB180618BB908958431910562
S11306A021F48BB180628BB908958531910521F4D1
S11306B08BB180648BB90895469719F48BB1806827
S11306C08BB90895009729F483B1282F217030E065
S11306D09CC08130910521F423B1227030E095C093
S11306E08230910521F423B1247030E08EC0833030
S11306F0910521F423B1287030E087C0843091053E
S113070021F423B1207130E080C08530910521F4BB
S113071023B1207230E079C08630910521F423B1F1
S1130720207430E072C08730910521F423B1207821
S113073030E06BC08830910529F486B1282F2170F0
S113074030E063C08930910521F426B1227030E095
S11307505CC08A30910521F426B1247030E055C084
S11307608B30910521F426B1287030E04EC08C30D6
S1130770910521F426B1207130E047C08D309105F8
S113078021F426B1207230E040C08E30910521F46E
S113079026B1207430E039C08F30910529F489B135
S11307A0282F217030E031C08031910521F429B126
S11307B0227030E02AC08131910521F429B12470DE
S11307C030E023C08231910521F429B1287030E052
S11307D01CC08331910521F429B1207130E015C08A
S11307E08431910521F429B1207230E00EC08531A5
S11307F0910521F429B1207430E007C0469721F413
S113080029B1207830E001C00895822F932F0895F4
S11308108BB180648BB900C08BB18F7B8BB9089589
S1130820CF93DF93D82F662321F08BB180618BB9EE
S113083003C08BB18F7E8BB98BB18F7D8BB98AB19D
S11308408F608AB9CBB1C07F8D2F82958F708C2B2E
S11308508BB90E940804DF70DC2BDBB90E9408040A
S1130860CF60CBB9DF91CF910895882321F08BB16C
S113087080618BB903C08BB18F7E8BB98BB18062E1
S11308808BB98AB1807F8AB98BB180648BB900C07F
S113089099B19295907F8BB18F7B8BB900C08BB14E
S11308A080648BB900C089B18F702BB12F7B2BB9B9
S11308B0892B089580E00E9435048823DCF385E0C9
S11308C08A95F1F7000080E00E9435040895CF93E3
S11308D0C82F0E945A0460E08C2F0E941004CF910C
S11308E00895611104C080580E94670408958054DB
S11308F00E946704089581E00E9467040895CF93DD
S1130900C82F0E945A04CA3049F4803410F480E499
S113091001C080E080580E94670404C061E08C2F0D
S11309200E941004CF910895CF93C82F8AB18F6786
S11309308AB98FEF9CE70197F1F700C000008BB1F3
S113094082608BB98BB181608BB90E9408048FEFF0
S113095096E20197F1F700C000000E9408049AEAA9
S11309609A95F1F700C00E9408048AEA8A95F1F783
S113097000C08BB18E7F8BB90E9408049AEA9A95C5
S1130980F1F700C088E20E94670488E00E946704CF
S11309900E947B0486E00E9467048C2F0E946704F7
S11309A0CF910895CF92DF92EF92FF920F931F930E
S11309B0909333018093320170932D0160932C0145
S11309C050932B0140932A0130932F0120932E0141
S11309D01093350100933401F0923101E09230011B
S11309E0D0922901C092280160E070E00E94D400F6
S11309F060E070E080912C0190912D010E94D40060
S1130A0060E070E080912A0190912B010E94D40053
S1130A1060E070E080912E0190912F010E94D4003B
S1130A2061E070E080913401909135010E94D4001E
S1130A3061E070E080913001909131010E94D40016
S1130A4061E070E080912801909129010E94D40016
S1130A5061E070E080913401909135010E941B02A5
S1130A6061E070E080913001909131010E941B029D
S1130A7061E070E080912801909129010E941B029D
S1130A801F910F91FF90EF90DF90CF900895CF9337
S1130A902FEF32E547E0215030404040E1F700C0FD
S1130AA00000892B11F0C4E701C0C6E660E070E0E5
S1130AB080913401909135010E941B028091320192
S1130AC0909133010E946203892BC9F080912C011B
S1130AD090912D010E946203892B99F080912A0143
S1130AE090912B010E946203892B69F080912E0161
S1130AF090912F010E946203892B39F007C0C1E055
S1130B0005C0C4E003C0C7E001C0CAE261E070E010
S1130B1080913401909135010E941B0260E070E0E5
S1130B2080913001909131010E941B028091320129
S1130B30909133010E946203892BC9F080912C01AA
S1130B4090912D010E946203892B99F080912A01D2
S1130B5090912B010E946203892B69F080912E01F0
S1130B6090912F010E946203892B39F007C0C2E0E3
S1130B7005C0C5E003C0C8E001C0C0E061E070E0AA
S1130B8080913001909131010E941B0260E070E07D
S1130B9080912801909129010E941B0280913201C9
S1130BA0909133010E946203892BC9F080912C013A
S1130BB090912D010E946203892B99F080912A0162
S1130BC090912B010E946203892B69F080912E0180
S1130BD090912F010E946203892B39F007C0C3E072
S1130BE005C0C6E003C0C9E001C0C3E261E070E033
S1130BF080912801909129010E941B02C43709F4B5
S1130C0055CF8C2FCF9108950E947F0480E090E00F
S1130C1008958CE00E94940480E091E0909339015F
S1130C2080933801C12CD12C0F2EFDE0EF2EF12C36
S1130C30F02D0CE010E02BE030E04AE050E069E0F9
S1130C4070E088E090E00E94D2048EE091E09F93EF
S1130C508F930E94990BC0E08C2F90E00E940D0CA2
S1130C601F928F931F92CF9387E191E09F938F936D
S1130C700E94990B8DB79EB708960FB6F8949EBF45
S1130C800FBE8DBF10E081E090E00E9447058130E7
S1130C9001F51F5FC12FD0E0CE010E940D0C082F7B
S1130CA061E080E00E9471041F920F93DF931F9311
S1130CB088E191E09F938F930E94990B61E084E017
S1130CC00E9471040F900F900F900F900F900F904F
S1130CD0DACF843001F51150C12FD0E0CE010E944B
S1130CE00D0C082F61E080E00E9471041F920F93A5
S1130CF0DF931F9388E191E09F938F930E94990B58
S1130D0061E084E00E9471040F900F900F900F90A7
S1130D100F900F90B8CF8A3209F0B5CF61E084E02C
S1130D200E9471048FE00E946704D0E000E081E03B
S1130D3090E00E944705C82F8A3090F41F928F9349
S1130D4084E291E09F938F930E94990B90E1099F15
S1130D50C00D11240C2FDF5F0F900F900F900F9098
S1130D60D23029F7602F812F90E00E94150C8CE07F
S1130D700E94670488CFA0E1B0E0E1ECF6E00C94B7
S1130D80380A7C011B016A01FC01178216828381E7
S1130D9081FF44C39E012F5F3F4F3901F7019381C7
S1130DA0F10193FD859193FF81911F01882309F43B
S1130DB031C3853239F493FD859193FF81911F01ED
S1130DC0853239F4B70190E00E945D0B560165014C
S1130DD0E5CF10E0512C912CFFE1F915D8F08B32BE
S1130DE079F038F4803279F08332A1F4F92DF0618E
S1130DF02EC08D3261F0803369F4292D21602DC01D
S1130E00392D3260932E892D8460982E2AC0E92DC5
S1130E10E86015C097FC2DC020ED280F2A3088F417
S1130E2096FE06C03AE0139F200D1124122F19C01C
S1130E308AE0589E200D1124522EE92DE0629E2E48
S1130E4010C08E3231F496FCE5C2F92DF0649F2E69
S1130E5008C08C3621F4292D2068922E02C08836D1
S1130E6041F4F10193FD859193FF81911F0181115B
S1130E70B3CF9BEB980F933020F4992D9061805E53
S1130E8007C09BE9980F933008F066C1992D9F7EA7
S1130E9096FF16E09F73992E853619F49064992E67
S1130EA008C0863621F4392F3068932E02C0111100
S1130EB0115097FE07C01C3350F444244394410E50
S1130EC027E00BC0183038F027E017E005C027E012
S1130ED09CE3492E02C0212F412C560184E0A80E28
S1130EE0B11CF6016081718182819381042DA3017B
S1130EF00E946F0A6C01F981FC87F0FF02C0F3FFC6
S1130F0006C091FC06C092FE06C000E205C00DE2D8
S1130F1003C00BE201C000E08C858C7019F0011154
S1130F205AC29BC297FE10C04C0CFC85F4FF04C04F
S1130F308A81813309F44A94141474F528E0241541
S1130F4078F588E0482E2CC096FC2AC0812F90E0CA
S1130F508C159D059CF03CEFC3163FEFD30674F04F
S1130F60892D8068982E0AC0E2E0F0E0EC0FFD1FA6
S1130F70E10FF11D8081803319F411501111F4CF68
S1130F8097FE0EC044244394410E812F90E0C8166E
S1130F90D9062CF41C1904C04424439401C010E065
S1130FA097FE06C01C141D0434F4C601019605C046
S1130FB085E090E002C081E090E0011101961123E8
S1130FC031F0212F30E02F5F3F4F820F931F252DEB
S1130FD030E08217930714F4581A01C0512C892D5C
S1130FE0897049F4552039F0B70180E290E00E94FD
S1130FF05D0B5A94F7CF002329F0B701802F90E0BE
S11310000E945D0B93FC09C0552039F0B70180E3C1
S113101090E00E945D0B5A94F7CF97FE4CC04601B6
S1131020D7FE02C0812C912CC60188199909F301BD
S1131030E80FF91FFE87ED87960124193109388BD3
S11310402F87012F10E01195019511093FEF8316A9
S1131050930629F4B7018EE290E00E945D0BC81458
S1131060D9044CF08F8598898815990524F4ED8569
S1131070FE85818101C080E3F1E08F1A91082D85FE
S11310803E852F5F3F4F3E872D87801691062CF0BB
S1131090B70190E00E945D0BD9CFC814D90441F484
S11310A09A81963320F4953319F43C8534FF81E317
S11310B0B70190E04EC08A81813319F09C859F7EF0
S11310C09C87B70190E00E945D0B111105C094FC50
S11310D018C085E690E017C0B7018EE290E00E9448
S11310E05D0B1E5F82E001E0080FF301E80FF11DC4
S11310F08081B70190E00E945D0B802F0113F3CF34
S1131100E6CF85E490E0B7010E945D0BD7FC06C0F2
S1131110C114D10441F4EC85E4FF05C0D194C19419
S1131120D1088DE201C08BE2B70190E00E945D0B13
S113113080E32AE0C216D1042CF08F5FFAE0CF1AC4
S1131140D108F7CFB70190E00E945D0BB701C6014B
S1131150C0960E945D0B54C1833631F0833779F019
S1131160833509F056C020C0560132E0A30EB11CED
S1131170F6018081898301E010E0630112C0560109
S1131180F2E0AF0EB11CF601C080D18096FE03C020
S1131190612F70E002C06FEF7FEFC6010E94520B17
S11311A08C01F92DFF7714C0560122E0A20EB11C68
S11311B0F601C080D18096FE03C0612F70E002C0AA
S11311C06FEF7FEFC6010E94470B8C01F92DF06889
S11311D09F2EF3FD1AC0852D90E008171907A8F477
S11311E0B70180E290E00E945D0B5A94F4CFF601BF
S11311F097FC859197FE81916F01B70190E00E9461
S11312005D0B51105A94015011090115110579F71C
S1131210F7C0843611F0893661F5560197FE09C08E
S113122024E0A20EB11CF601608171818281938158
S11312300AC0F2E0AF0EB11CF60160817181072E85
S1131240000C880B990BF92DFF769F2E97FF09C090
S113125090958095709561957F4F8F4F9F4FF06863
S11312609F2E2AE030E0A3010E94AF0BC82EC618BF
S11312703FC0092D853721F40F7E2AE030E01DC0E0
S1131280097F8F3691F018F4883559F0C3C0803740
S113129019F0883711F0BEC0006104FF09C0046072
S11312A007C094FE08C0066006C028E030E005C010
S11312B020E130E002C020E132E0560107FF09C01E
S11312C084E0A80EB11CF601608171818281938152
S11312D008C0F2E0AF0EB11CF6016081718180E0BC
S11312E090E0A3010E94AF0BC82EC6180F77902E72
S11312F096FE0BC0092D0E7FC11650F494FE0AC051
S113130092FC08C0092D0E7E05C0DC2C092D03C0FB
S1131310DC2C01C0D12E04FF0DC0FE01EC0DF11D2B
S11313208081803311F4097E09C002FF06C0D39482
S1131330D39404C0802F867809F0D39403FD11C0A0
S113134000FF06C01C2DD51480F4150D1D190DC009
S1131350D51458F4B70180E290E00E945D0BD39459
S1131360F7CFD51410F45D1801C0512C04FF10C040
S1131370B70180E390E00E945D0B02FF17C001FDFE
S113138003C088E790E002C088E590E0B7010CC094
S1131390802F867859F001FF02C08BE201C080E201
S11313A007FD8DE2B70190E00E945D0BC11638F491
S11313B0B70180E390E00E945D0B1150F7CFCA940F
S11313C0F301EC0DF11D8081B70190E00E945D0BEB
S11313D0C110F5CF15C0F4E0F51560F584E0581A96
S11313E093FE1FC0011127C02C8523FF2AC008E6E5
S11313F010E0392D3071932EF8018491811124C0AD
S1131400552009F4E4CCB70180E290E00E945D0B22
S11314105A94F6CFF7018681978126C08FEF9FEF0C
S113142023C0B70180E290E00E945D0B5A945110F2
S1131430F8CFD8CF512CB701802F90E00E945D0BDC
S1131440D3CF0CE610E0D5CF91108052B70190E0D5
S11314500E945D0B0F5F1F4FCFCF23E0251510F4C3
S113146083E0BDCF512CC0CF6096E2E10C94540AC6
S11314702F923F924F925F926F927F928F929F92A0
S1131480AF92BF92CF92DF92EF92FF920F931F938E
S1131490CF93DF93CDB7DEB7CA1BDB0B0FB6F8943F
S11314A0DEBF0FBECDBF09942A88398848885F847F
S11314B06E847D848C849B84AA84B984C884DF80F0
S11314C0EE80FD800C811B81AA81B981CE0FD11DD4
S11314D00FB6F894DEBF0FBECDBFED0108952830DE
S11314E008F027E03327DA01990F311D87FD916059
S11314F000966105710539F432602E5F3D9330E347
S11315002A95E1F708959F3F30F080387105610511
S113151009F03C5F3C5F3D93913008F08068911D79
S1131520DF93CF931F930F93FF92EF92192F987F1E
S11315309695E92F96959695E90FFF27E653FF4F69
S113154099273327EE24FF24A701E7010590089487
S1131550079428F4360FE71EF81E491F511D660F25
S1131560771F881F991F0694A1F70590079428F404
S1131570E70EF81E491F561FC11D770F881F991FBC
S1131580661F0694A1F70590079428F4F80E491FE6
S1131590561FC71FD11D880F991F661F771F0694FA
S11315A0A1F70590079420F4490F561FC71FD81FB1
S11315B0990F661F771F881F0694A9F784911095C9
S11315C0177041F0D695C79557954795F794E794CA
S11315D01A95C1F7E0E7F0E06894159015913591FC
S11315E06591959105907FE27395E118F10A430B9B
S11315F0560BC90BD009C0F7E10CF11E431F561F4F
S1131600C91FD01D7EF4703311F48A95E6CFE89497
S1131610015030F0080F0AF40027021708F4202FB5
S11316202395022F7A3328F079E37D932A95E9F7FD
S113163010C07D932A9589F60694979567953795FA
S113164017951794E118F10A430B560BC90BD009EF
S113165098F023957E9173957A3308F070E37C9328
S11316602013B8F77E9170617D9330F0839571E318
S11316707D9370E32A95E1F71124EF90FF900F9189
S11316801F91CF91DF91992787FD90950895FC01D3
S11316900590615070400110D8F7809590958E0F99
S11316A09F1F0895FC016150704001900110D8F70C
S11316B0809590958E0F9F1F08950F931F93CF933E
S11316C0DF93FB01238121FD03C08FEF9FEF2CC02B
S11316D022FF16C046815781248135814217530762
S11316E044F4A081B1819D012F5F3F4F318320835A
S11316F08C93268137812F5F3F4F3783268314C015
S11317008B01EC01FB010084F185E02D0995892B07
S1131710E1F6D80116968D919C911797019617962C
S11317209C938E931697CE01DF91CF911F910F91C9
S11317300895A0E0B0E0EFE9FBE00C94480AAE01A4
S11317404B5F5F4FFA0161917191AF018091380154
S1131750909139010E94BB06E2E00C94640AFA01FC
S1131760AA27283051F1203181F1E8946F936E7FDC
S11317706E5F7F4F8F4F9F4FAF4FB1E03ED0B4E0CD
S11317803CD0670F781F891F9A1FA11D680F791F0E
S11317908A1F911DA11D6A0F711D811D911DA11D1F
S11317A020D009F468943F912AE0269F112430192F
S11317B0305D3193DEF6CF010895462F4770405DCA
S11317C04193B3E00FD0C9F7F6CF462F4F70405D79
S11317D04A3318F0495D31FD4052419302D0A9F7D4
S11317E0EACFB4E0A6959795879577956795BA95CE
S11317F0C9F700976105710508959B01AC010A2E94
S113180006945795479537952795BA95C9F7620F6A
S1131810731F841F951FA01D0895F999FECF92BDD3
S113182081BDF89A992780B50895262FF999FECF9E
S11318301FBA92BD81BD20BD0FB6F894FA9AF99AE9
S10D18400FBE01960895F894FFCF3F
S113184A0000000200000000040600000000456ECB
S113185A643A4461646F000A25303258683D253081
S10B186A3258680025640000F7
S9030000FC
