S0130000457830382D454550524F4D2E73726563F7
S11300000C9434000C9451000C9451000C94510045
S11300100C9451000C9451000C9451000C94510018
S11300200C9451000C9451000C9451000C94510008
S11300300C9451000C9451000C9451000C945100F8
S11300400C9451000C9451000C9451000C945100E8
S11300500C9451000C9451000C9451000C945100D8
S11300600C9451000C94510011241FBECFEFD8E022
S1130070DEBFCDBF11E0A0E0B1E0E0E6F2E102C0F6
S113008005900D92A832B107D9F721E0A8E2B1E0BA
S113009001C01D92AC33B207E1F70E9488050C94AD
S11300A02E090C9400006115710509F0A0C0009799
S11300B021F484B18E7F84B908958130910521F4AF
S11300C084B18D7F84B908958230910521F484B17F
S11300D08B7F84B908958330910521F484B1877F9F
S11300E084B908958430910521F484B18F7E84B954
S11300F008958530910521F484B18F7D84B90895E4
S11301008630910521F484B18F7B84B908958730BA
S1130110910521F484B18F7784B9089588309105CD
S113012021F487B18E7F87B908958930910521F430
S113013087B18D7F87B908958A30910521F487B1FD
S11301408B7F87B908958B30910521F487B1877F20
S113015087B908958C30910521F487B18F7E87B9D2
S113016008958D30910521F487B18F7D87B9089565
S11301708E30910521F487B18F7B87B908958F3034
S1130180910521F48AB18E7F8AB908958031910551
S113019021F48AB18D7F8AB908958131910521F4C2
S11301A08AB18B7F8AB908958231910521F48AB18D
S11301B0877F8AB908958331910521F48AB18F7EAE
S11301C08AB908958431910521F48AB18F7D8AB961
S11301D008958531910521F48AB18F7B8AB90895F8
S11301E0469709F0A6C08AB18F778AB9089561301D
S11301F0710509F09EC0009721F484B1816084B92F
S113020008958130910521F484B1826084B9089500
S11302108230910521F484B1846084B908958330D7
S1130220910521F484B1886084B9089584309105DE
S113023021F484B1806184B908958530910521F455
S113024084B1806284B908958630910521F484B123
S1130250806484B908958730910521F484B180685D
S113026084B908958830910521F487B1816087B9F4
S113027008958930910521F487B1826087B9089582
S11302808A30910521F487B1846087B908958B3051
S1130290910521F487B1886087B908958C30910560
S11302A021F487B1806187B908958D30910521F4D7
S11302B087B1806287B908958E30910521F487B1A2
S11302C0806487B908958F30910521F48AB18160E3
S11302D08AB908958031910521F48AB182608AB97E
S11302E008958131910521F48AB184608AB9089511
S11302F08231910521F48AB188608AB908958331E5
S1130300910521F48AB180618AB9089584319105F7
S113031021F48AB180628AB908958531910521F466
S11303208AB180648AB90895469719F48AB18068BD
S11303308AB908956115710509F0A0C0009721F4E8
S113034085B18E7F85B908958130910521F485B1F9
S11303508D7F85B908958230910521F485B18B7F15
S113036085B908958330910521F485B1877F85B9D6
S113037008958430910521F485B18F7E85B908955F
S11303808530910521F485B18F7D85B90895863036
S1130390910521F485B18F7B85B908958730910546
S11303A021F485B18F7785B908958830910521F4BA
S11303B088B18E7F88B908958930910521F488B178
S11303C08D7F88B908958A30910521F488B18B7F97
S11303D088B908958B30910521F488B1877F88B955
S11303E008958C30910521F488B18F7E88B90895E1
S11303F08D30910521F488B18F7D88B908958E30B0
S1130400910521F488B18F7B88B908958F309105C7
S113041021F48BB18E7F8BB908958031910521F43D
S11304208BB18D7F8BB908958131910521F48BB106
S11304308B7F8BB908958231910521F48BB1877F2D
S11304408BB908958331910521F48BB18F7E8BB9DB
S113045008958431910521F48BB18F7D8BB9089572
S11304608531910521F48BB18F7B8BB90895469723
S113047009F0A6C08BB18F778BB9089561307105EF
S113048009F09EC0009721F485B1816085B9089573
S11304908130910521F485B1826085B90895823057
S11304A0910521F485B1846085B90895833091055F
S11304B021F485B1886085B908958430910521F4CB
S11304C085B1806185B908958530910521F485B1A0
S11304D0806285B908958630910521F485B18064E0
S11304E085B908958730910521F485B1806885B96F
S11304F008958830910521F488B1816088B9089500
S11305008930910521F488B1826088B908958A30D0
S1130510910521F488B1846088B908958B309105E0
S113052021F488B1886088B908958C30910521F44C
S113053088B1806188B908958D30910521F488B11E
S1130540806288B908958E30910521F488B1806461
S113055088B908958F30910521F48BB181608BB9EE
S113056008958031910521F48BB182608BB908958F
S11305708131910521F48BB184608BB90895823166
S1130580910521F48BB188608BB90895833191056D
S113059021F48BB180618BB908958431910521F4E4
S11305A08BB180628BB908958531910521F48BB1AB
S11305B080648BB90895469719F48BB180688BB920
S11305C00895009729F483B1282F217030E09CC04E
S11305D08130910521F423B1227030E095C082303E
S11305E0910521F423B1247030E08EC0833091054D
S11305F021F423B1287030E087C08430910521F4C0
S113060023B1207130E080C08530910521F423B1FD
S1130610207230E079C08630910521F423B1207432
S113062030E072C08730910521F423B1207830E0A6
S11306306BC08830910529F486B1282F217030E0F1
S113064063C08930910521F426B1227030E05CC08A
S11306508A30910521F426B1247030E055C08B30E6
S1130660910521F426B1287030E04EC08C309105FC
S113067021F426B1207130E047C08D30910521F47A
S113068026B1207230E040C08E30910521F426B1AD
S1130690207430E039C08F30910529F489B1282FB6
S11306A0217030E031C08031910521F429B12270EC
S11306B030E02AC08131910521F429B1247030E061
S11306C023C08231910521F429B1287030E01CC087
S11306D08331910521F429B1207130E015C08431B2
S11306E0910521F429B1207230E00EC085319105C5
S11306F021F429B1207430E007C0469721F429B1D0
S1130700207830E001C00895822F932F08958BB193
S113071080648BB900C08BB18F7B8BB90895CF9364
S1130720DF93D82F662321F08BB180618BB903C08E
S11307308BB18F7E8BB98BB18F7D8BB98AB18F6072
S11307408AB9CBB1C07F8D2F82958F708C2B8BB9DA
S11307500E948703DF70DC2BDBB90E948703CF6024
S1130760CBB9DF91CF910895882321F08BB18061BB
S11307708BB903C08BB18F7E8BB98BB180628BB97F
S11307808AB1807F8AB98BB180648BB900C099B17A
S11307909295907F8BB18F7B8BB900C08BB18064B5
S11307A08BB900C089B18F702BB12F7B2BB9892BEA
S11307B0089580E00E94B4038823DCF385E08A95E1
S11307C0F1F7000080E00E94B4030895CF93C82F8E
S11307D00E94D90360E08C2F0E948F03CF9108956B
S11307E0611104C080580E94E603089580540E9459
S11307F0E603089581E00E94E6030895CF93C82F8D
S11308000E94D903CA3049F4803410F480E401C052
S113081080E080580E94E60304C061E08C2F0E94AF
S11308208F03CF910895CF93C82F8AB18F678AB968
S11308308FEF9CE70197F1F700C000008BB1826055
S11308408BB98BB181608BB90E9487038FEF96E2DD
S11308500197F1F700C000000E9487039AEA9A9575
S1130860F1F700C00E9487038AEA8A95F1F700C075
S11308708BB18E7F8BB90E9487039AEA9A95F1F720
S113088000C088E20E94E60388E00E94E6030E941A
S1130890FA0386E00E94E6038C2F0E94E603CF91C0
S11308A00895CF92DF92EF92FF920F931F9390934C
S11308B033018093320170932D0160932C01509386
S11308C02B0140932A0130932F0120932E01109382
S11308D0350100933401F0923101E0923001D0925D
S11308E02901C092280160E070E00E94530060E09A
S11308F070E080912C0190912D010E94530060E0E2
S113090070E080912A0190912B010E94530060E0D5
S113091070E080912E0190912F010E94530061E0BC
S113092070E080913401909135010E94530061E0A0
S113093070E080913001909131010E94530061E098
S113094070E080912801909129010E94530061E098
S113095070E080913401909135010E949A0161E028
S113096070E080913001909131010E949A0161E020
S113097070E080912801909129010E949A011F91B1
S11309800F91FF90EF90DF90CF900895CF932FEFCA
S113099032E547E0215030404040E1F700C000001C
S11309A0892B11F0C4E701C0C6E660E070E08091D5
S11309B03401909135010E949A0180913201909105
S11309C033010E94E102892BC9F080912C0190919E
S11309D02D010E94E102892B99F080912A019091C6
S11309E02B010E94E102892B69F080912E019091E4
S11309F02F010E94E102892B39F007C0C1E005C034
S1130A00C4E003C0C7E001C0CAE261E070E08091C5
S1130A103401909135010E949A0160E070E0809168
S1130A203001909131010E949A018091320190919C
S1130A3033010E94E102892BC9F080912C0190912D
S1130A402D010E94E102892B99F080912A01909155
S1130A502B010E94E102892B69F080912E01909173
S1130A602F010E94E102892B39F007C0C2E005C0C2
S1130A70C5E003C0C8E001C0C0E061E070E080915F
S1130A803001909131010E949A0160E070E0809100
S1130A902801909129010E949A018091320190913C
S1130AA033010E94E102892BC9F080912C019091BD
S1130AB02D010E94E102892B99F080912A019091E5
S1130AC02B010E94E102892B69F080912E01909103
S1130AD02F010E94E102892B39F007C0C3E005C051
S1130AE0C6E003C0C9E001C0C3E261E070E08091E8
S1130AF02801909129010E949A01C43709F455CF25
S1130B008C2FCF9108950E94FE0380E090E0089519
S1130B108CE00E94130480E091E09093390180936B
S1130B203801C12CD12C0F2EFDE0EF2EF12CF02D2D
S1130B300CE010E02BE030E04AE050E069E070E0C7
S1130B4088E090E00E9451048EE091E09F938F939F
S1130B500E943A06C0E08C2F90E00E94E1081F92A8
S1130B608F931F92CF9387E191E09F938F930E947D
S1130B703A068DB79EB708960FB6F8949EBF0FBE7F
S1130B808DBF10E081E090E00E94C604813001F541
S1130B901F5FC12FD0E0CE010E94E108082F61E061
S1130BA080E00E94F0031F920F93DF931F9388E16C
S1130BB091E09F938F930E943A0661E084E00E9443
S1130BC0F0030F900F900F900F900F900F90DACFCB
S1130BD0843001F51150C12FD0E0CE010E94E1080C
S1130BE0082F61E080E00E94F0031F920F93DF93CF
S1130BF01F9388E191E09F938F930E943A0661E0EE
S1130C0084E00E94F0030F900F900F900F900F90CC
S1130C100F90B8CF8A3209F0B5CF61E084E00E942A
S1130C20F0038FE00E94E603D0E000E081E090E072
S1130C300E94C604C82F8A3090F41F928F9384E2D6
S1130C4091E09F938F930E943A0690E1099FC00D13
S1130C5011240C2FDF5F0F900F900F900F90D23064
S1130C6029F7602F812F90E00E94E9088CE00E9410
S1130C70E60388CFA0E0B0E0E0E4F6E00C940709D6
S1130C80AE014B5F5F4FFA0161917191AF018091A9
S1130C903801909139010E945006E2E00C94230936
S1130CA0ABE0B0E0E6E5F6E00C94F7086C017B01FC
S1130CB08A01FC0117821682838181FFCCC1CE0197
S1130CC001963C01F6019381F70193FD859193FF11
S1130CD081917F01882309F4BAC1853239F493FDE7
S1130CE0859193FF81917F01853229F4B60190E0CB
S1130CF00E944708E7CF912C212C312CFFE1F315FA
S1130D00D8F08B3279F038F4803279F08332A1F460
S1130D10232D20611DC08D3261F0803369F4232DB1
S1130D20216016C0832D8260382EE32DE4603E2EB0
S1130D302AC0F32DF8601DC037FC2DC020ED280F0C
S1130D402A3040F08E32B9F436FC81C1232D206460
S1130D50322E19C036FE06C08AE0989E200D11245A
S1130D60922E11C0EAE02E9E200D1124222EF32D86
S1130D70F0623F2E08C08C3621F4832D8068382E13
S1130D8002C0883641F4F70193FD859193FF819168
S1130D907F018111B3CF982F9F7D9554933028F410
S1130DA00C5F1F4F9FE399830DC0833631F0833767
S1130DB071F0833509F059C021C0F801808189831D
S1130DC00E5F1F4F88248394912C530113C0280174
S1130DD0F2E04F0E511CF801A080B18036FE03C032
S1130DE0692D70E002C06FEF7FEFC5010E943C08DF
S1130DF04C018201F32DFF773F2E16C0280122E01B
S1130E00420E511CF801A080B18036FE03C0692D4A
S1130E1070E002C06FEF7FEFC5010E9431084C0102
S1130E20F32DF0683F2E820133FC1BC0822D90E02D
S1130E3088169906B0F4B60180E290E00E94470853
S1130E402A94F4CFF50137FC859137FE81915F0137
S1130E50B60190E00E94470821102A9421E0821AEA
S1130E6091088114910471F7E8C0843611F0893631
S1130E7041F5F80137FE07C0608171818281938159
S1130E800C5F1F4F08C060817181072E000C880B16
S1130E90990B0E5F1F4FF32DFF763F2E97FF09C06E
S1130EA090958095709561957F4F8F4F9F4FF06817
S1130EB03F2E2AE030E0A3010E948308882E861882
S1130EC045C0853731F4232D2F7EB22E2AE030E041
S1130ED025C0932D997FB92E8F36C1F018F488352B
S1130EE079F0B5C0803719F0883721F0B0C0E92F08
S1130EF0E061BE2EB4FE0DC0FB2DF460BF2E09C010
S1130F0034FE0AC0292F2660B22E06C028E030E045
S1130F1005C020E130E002C020E132E0F801B7FE74
S1130F2007C060817181828193810C5F1F4F06C06D
S1130F306081718180E090E00E5F1F4FA3010E94E9
S1130F408308882E8618FB2DFF773F2E36FE0DC0B2
S1130F50232D2E7FA22E891458F434FE0BC032FCAC
S1130F6009C0832D8E7EA82E05C0B82CA32C03C0E7
S1130F70B82C01C0B92CA4FE0FC0FE01E80DF11D70
S1130F808081803321F49A2D997EA92E09C0A2FE76
S1130F9006C0B394B39404C08A2D867809F0B39440
S1130FA0A3FC11C0A0FE06C0B21488F4280C922C35
S1130FB09B180EC0B21460F4B60180E290E00E9467
S1130FC04708B394F7CFB21418F42B1802C0982C26
S1130FD0212CA4FE10C0B60180E390E00E944708D3
S1130FE0A2FE17C0A1FC03C088E790E002C088E518
S1130FF090E0B6010CC08A2D867859F0A1FE02C09B
S11310008BE201C080E2A7FC8DE2B60190E00E9471
S11310104708891438F4B60180E390E00E94470839
S11310209A94F7CF8A94F301E80DF11D8081B601FB
S113103090E00E9447088110F5CF222009F442CEA7
S1131040B60180E290E00E9447082A94F6CFF601A8
S11310508681978102C08FEF9FEF2B96E2E10C947B
S11310601309FC010590615070400110D8F7809578
S113107090958E0F9F1F0895FC0161507040019060
S11310800110D8F7809590958E0F9F1F08950F93A8
S11310901F93CF93DF93FB01238121FD03C08FEFC7
S11310A09FEF2CC022FF16C04681578124813581D1
S11310B04217530744F4A081B1819D012F5F3F4F34
S11310C0318320838C93268137812F5F3F4F378371
S11310D0268314C08B01EC01FB010084F185E02D13
S11310E00995892BE1F6D80116968D919C91179755
S11310F0019617969C938E931697CE01DF91CF910C
S11311001F910F910895FA01AA27283051F1203137
S113111081F1E8946F936E7F6E5F7F4F8F4F9F4F87
S1131120AF4FB1E03ED0B4E03CD0670F781F891FC9
S11311309A1FA11D680F791F8A1F911DA11D6A0F97
S1131140711D811D911DA11D20D009F468943F914A
S11311502AE0269F11243019305D3193DEF6CF0149
S11311600895462F4770405D4193B3E00FD0C9F70F
S1131170F6CF462F4F70405D4A3318F0495D31FD7C
S11311804052419302D0A9F7EACFB4E0A6959795CF
S1131190879577956795BA95C9F7009761057105A5
S11311A008959B01AC010A2E0694579547953795EF
S11311B02795BA95C9F7620F731F841F951FA01D49
S11311C00895F999FECF92BD81BDF89A992780B50B
S11311D00895262FF999FECF1FBA92BD81BD20BD77
S11311E00FB6F894FA9AF99A0FBE019608952F92C1
S11311F03F924F925F926F927F928F929F92AF92A3
S1131200BF92CF92DF92EF92FF920F931F93CF93EF
S1131210DF93CDB7DEB7CA1BDB0B0FB6F894DEBF86
S11312200FBECDBF09942A88398848885F846E84AC
S11312307D848C849B84AA84B984C884DF80EE80F6
S1131240FD800C811B81AA81B981CE0FD11D0FB6FF
S1131250F894DEBF0FBECDBFED010895F894FFCF23
S11312600000000200000000830500000000456E3D
S1131270643A4461646F000A25303258683D253071
S10B12803258680025640000E7
S9030000FC
