:100000000C94B5000C94D2000C94D2000C94D20045
:100010000C94D2000C94D2000C94D2000C94D20018
:100020000C94D2000C94D2000C94D2000C94D20008
:100030000C94D2000C94D2000C94D2000C94D200F8
:100040000C94D2000C94D2000C94D2000C94D200E8
:100050000C94D2000C94D2000C94D2000C94D200D8
:100060000C94D2000C94D2006E616E00696E660032
:1000700000407A10F35A00A0724E18090010A5D45F
:10008000E80000E87648170000E40B54020000CABC
:100090009A3B000000E1F505000080969800000002
:1000A00040420F000000A086010000001027000061
:1000B0000000E803000000006400000000000A00E7
:1000C000000000000100000000002C76D888DC67EA
:1000D0004F0823DFC1DFAE59E1B1B796E5E3E45342
:1000E000C63AE651997696E8E6C28426EB898C9B5F
:1000F00062ED407C6FFCEFBC9C9F40F2BAA56FA5FF
:10010000F490055A2AF75C936B6CF9676DC11BFC80
:10011000E0E40D47FEF520E6B500D0ED902E03009B
:10012000943577050080841E080000204E0A0000E8
:1001300000C80C333333330F986E12831141EF8DA7
:100140002114893BE65516CFFEE6DB18D1844B38E7
:100150001BF77C1D901DA4BBE424203284725E2218
:100160008100C9F124ECA1E53D2711241FBECFEF8A
:10017000D8E0DEBFCDBF11E0A0E0B1E0EEECF3E1EE
:1001800002C005900D92AC31B107D9F721E0ACE186
:10019000B1E001C01D92A232B207E1F70E949003C4
:1001A0000C94E5090C9400006115710509F0A0C0DC
:1001B000009721F484B18E7F84B908958130910530
:1001C00021F484B18D7F84B908958230910521F4A2
:1001D00084B18B7F84B908958330910521F484B173
:1001E000877F84B908958430910521F484B18F7E8E
:1001F00084B908958530910521F484B18F7D84B947
:1002000008958630910521F484B18F7B84B90895D7
:100210008730910521F484B18F7784B908958830AF
:10022000910521F487B18E7F87B9089589309105B2
:1002300021F487B18D7F87B908958A30910521F423
:1002400087B18B7F87B908958B30910521F487B1F1
:10025000877F87B908958C30910521F487B18F7E0F
:1002600087B908958D30910521F487B18F7D87B9C5
:1002700008958E30910521F487B18F7B87B9089559
:100280008F30910521F48AB18E7F8AB9089580312B
:10029000910521F48AB18D7F8AB908958131910544
:1002A00021F48AB18B7F8AB908958231910521F4B6
:1002B0008AB1877F8AB908958331910521F48AB183
:1002C0008F7E8AB908958431910521F48AB18F7D9A
:1002D0008AB908958531910521F48AB18F7B8AB955
:1002E0000895469709F0A6C08AB18F778AB9089514
:1002F0006130710509F09EC0009721F484B18160DE
:1003000084B908958130910521F484B1826084B963
:1003100008958230910521F484B1846084B90895F0
:100320008330910521F484B1886084B908958430C4
:10033000910521F484B1806184B9089585309105D7
:1003400021F484B1806284B908958630910521F446
:1003500084B1806484B908958730910521F484B113
:10036000806884B908958830910521F487B181604F
:1003700087B908958930910521F487B1826087B9E2
:1003800008958A30910521F487B1846087B9089572
:100390008B30910521F487B1886087B908958C303E
:1003A000910521F487B1806187B908958D30910559
:1003B00021F487B1806287B908958E30910521F4C8
:1003C00087B1806487B908958F30910521F48AB18F
:1003D00081608AB908958031910521F48AB18260E3
:1003E0008AB908958131910521F48AB184608AB96E
:1003F00008958231910521F48AB188608AB90895FF
:100400008331910521F48AB180618AB908958431DC
:10041000910521F48AB180628AB9089585319105E8
:1004200021F48AB180648AB90895469719F48AB193
:1004300080688AB90895009729F483B1282F217024
:1004400030E09CC08130910521F423B1227030E06E
:1004500095C08230910521F423B1247030E08EC024
:100460008330910521F423B1287030E087C08430B7
:10047000910521F423B1207130E080C085309105D1
:1004800021F423B1207230E079C08630910521F447
:1004900023B1207430E072C08730910521F423B17C
:1004A000207830E06BC08830910529F486B1282F80
:1004B000217030E063C08930910521F426B12270AB
:1004C00030E05CC08A30910521F426B1247030E020
:1004D00055C08B30910521F426B1287030E04EC014
:1004E0008C30910521F426B1207130E047C08D3069
:1004F000910521F426B1207230E040C08E30910584
:1005000021F426B1207430E039C08F30910529F4F0
:1005100089B1282F217030E031C08031910521F45C
:1005200029B1227030E02AC08131910521F429B12E
:10053000247030E023C08231910521F429B1287064
:1005400030E01CC08331910521F429B1207130E0E5
:1005500015C08431910521F429B1207230E00EC01C
:100560008531910521F429B1207430E007C0469708
:1005700021F429B1207830E001C00895822F932F13
:1005800008958BB180648BB900C08BB18F7B8BB920
:100590000895CF93DF93D82F662321F08BB180612C
:1005A0008BB903C08BB18F7E8BB98BB18F7D8BB92B
:1005B0008AB18F608AB9CBB1C07F8D2F82958F7041
:1005C0008C2B8BB90E94C102DF70DC2BDBB90E943F
:1005D000C102CF60CBB9DF91CF910895882321F07C
:1005E0008BB180618BB903C08BB18F7E8BB98BB11E
:1005F00080628BB98AB1807F8AB98BB180648BB9F4
:1006000000C099B19295907F8BB18F7B8BB900C060
:100610008BB180648BB900C089B18F702BB12F7BF7
:100620002BB9892B089580E00E94EE028823DCF329
:1006300085E08A95F1F7000080E00E94EE020895BF
:10064000CF93C82F0E94130360E08C2F0E94C90231
:10065000CF910895611104C080580E94200308952D
:1006600080540E942003089581E00E942003089591
:10067000CF93C82F0E941303CA3049F4803410F47A
:1006800080E401C080E080580E94200304C061E043
:100690008C2F0E94C902CF910895CF93C82F8AB1A1
:1006A0008F678AB98FEF9CE70197F1F700C00000D0
:1006B0008BB182608BB98BB181608BB90E94C10212
:1006C0008FEF96E20197F1F700C000000E94C1028F
:1006D0009AEA9A95F1F700C00E94C1028AEA8A95C7
:1006E000F1F700C08BB18E7F8BB90E94C1029AEAEC
:1006F0009A95F1F700C088E20E94200388E00E94EA
:1007000020030E94340386E00E9420038C2F0E9465
:100710002003CF9108950E94380380E090E008956F
:1007200060E080E090E00E94D70961E081E090E025
:100730000E94D70962E082E090E00E94D70963E05E
:1007400083E090E00E94D7096AEF87E090E00E9482
:10075000D70963E08AE090E00E94D70967E08BE068
:1007600090E00E94D70966E78CE090E00E94D709EC
:1007700060E070E088E090E00E94D40060E070E00B
:1007800081E090E00E94D4008CE00E944D0380E064
:1007900091E090931F0180931E0110E0C12FD0E0E3
:1007A000CE010E94CF091F928F931F921F938FE05B
:1007B00091E09F938F930E945B092196CE010E9446
:1007C000CF091F928F93DF93CF938EE091E09F9399
:1007D0008F930E945B098DB79EB70C960FB6F89465
:1007E0009EBF0FBE8DBFC1E088E090E00E941B025B
:1007F000892B09F03FC09FEF24E38CE0915020400B
:100800008040E1F700C0000088E090E00E941B02F9
:10081000892BD1F30C2F10E0C8010E94CF09D82FEB
:1008200060E080E00E942A031F92DF931F93CF9322
:100830000FE011E01F930F930E945B09CF5FEC2E36
:10084000F12CC7010E94CF09D82F61E080E00E94FF
:100850002A031F92DF93FF92CF931F930F930E945F
:100860005B098DB79EB70C960FB6F8949EBF0FBE6E
:100870008DBFBACF89E090E00E941B02892B09F05E
:10088000B3CF9FEF24E38CE0915020408040E1F70C
:1008900000C00000FF24FA94FC0EC250D0E0CE014C
:1008A0000E94CF09182F60E080E00E942A031F9267
:1008B0001F93DF93CF93CFE0D1E0DF93CF930E94DC
:1008C0005B090F2D10E0C8010E94CF09E82E61E0FE
:1008D00080E00E942A031F92EF921F93FF92DF9302
:1008E000CF930E945B098DB79EB70C960FB6F89414
:1008F0009EBF0FBE8DBFCF2D77CFA0E1B0E0E3E864
:10090000F4E00C94FA077C011B016A01FC011782D8
:100910001682838181FF44C39E012F5F3F4F3901BF
:10092000F7019381F10193FD859193FF81911F015F
:10093000882309F431C3853239F493FD859193FFFF
:1009400081911F01853239F4B70190E00E941F099F
:1009500056016501E5CF10E0512C912CFFE1F9150E
:10096000D8F08B3279F038F4803279F08332A1F408
:10097000F92DF0612EC08D3261F0803369F4292D9C
:1009800021602DC0392D3260932E892D8460982EE0
:100990002AC0E92DE86015C097FC2DC020ED280F76
:1009A0002A3088F496FE06C03AE0139F200D1124E9
:1009B000122F19C08AE0589E200D1124522EE92DC5
:1009C000E0629E2E10C08E3231F496FCE5C2F92D05
:1009D000F0649F2E08C08C3621F4292D2068922EB9
:1009E00002C0883641F4F10193FD859193FF819116
:1009F0001F018111B3CF9BEB980F933020F4992DF9
:100A00009061805E07C09BE9980F933008F066C143
:100A1000992D9F7E96FF16E09F73992E853619F4C7
:100A20009064992E08C0863621F4392F3068932EB1
:100A300002C01111115097FE07C01C3350F444241A
:100A40004394410E27E00BC0183038F027E017E040
:100A500005C027E09CE3492E02C0212F412C5601FE
:100A600084E0A80EB11CF6016081718182819381BE
:100A7000042DA3010E9431086C01F981FC87F0FF6D
:100A800002C0F3FF06C091FC06C092FE06C000E261
:100A900005C00DE203C00BE201C000E08C858C7044
:100AA00019F001115AC29BC297FE10C04C0CFC8574
:100AB000F4FF04C08A81813309F44A94141474F554
:100AC00028E0241578F588E0482E2CC096FC2AC032
:100AD000812F90E08C159D059CF03CEFC3163FEFF5
:100AE000D30674F0892D8068982E0AC0E2E0F0E009
:100AF000EC0FFD1FE10FF11D8081803319F41150BF
:100B00001111F4CF97FE0EC044244394410E812F5F
:100B100090E0C816D9062CF41C1904C04424439450
:100B200001C010E097FE06C01C141D0434F4C60179
:100B3000019605C085E090E002C081E090E00111DF
:100B40000196112331F0212F30E02F5F3F4F820FAC
:100B5000931F252D30E08217930714F4581A01C013
:100B6000512C892D897049F4552039F0B70180E264
:100B700090E00E941F095A94F7CF002329F0B70193
:100B8000802F90E00E941F0993FC09C0552039F086
:100B9000B70180E390E00E941F095A94F7CF97FEB7
:100BA0004CC04601D7FE02C0812C912CC601881989
:100BB0009909F301E80FF91FFE87ED8796012419C3
:100BC0003109388B2F87012F10E0119501951109FC
:100BD0003FEF8316930629F4B7018EE290E00E945E
:100BE0001F09C814D9044CF08F8598898815990578
:100BF00024F4ED85FE85818101C080E3F1E08F1A48
:100C000091082D853E852F5F3F4F3E872D878016AB
:100C100091062CF0B70190E00E941F09D9CFC814AB
:100C2000D90441F49A81963320F4953319F43C8524
:100C300034FF81E3B70190E04EC08A81813319F01F
:100C40009C859F7E9C87B70190E00E941F0911112F
:100C500005C094FC18C085E690E017C0B7018EE28D
:100C600090E00E941F091E5F82E001E0080FF3017F
:100C7000E80FF11D8081B70190E00E941F09802FCD
:100C80000113F3CFE6CF85E490E0B7010E941F097E
:100C9000D7FC06C0C114D10441F4EC85E4FF05C0C3
:100CA000D194C194D1088DE201C08BE2B70190E0EC
:100CB0000E941F0980E32AE0C216D1042CF08F5F46
:100CC000FAE0CF1AD108F7CFB70190E00E941F09D0
:100CD000B701C601C0960E941F0954C1833631F086
:100CE000833779F0833509F056C020C0560132E0D1
:100CF000A30EB11CF6018081898301E010E063013D
:100D000012C05601F2E0AF0EB11CF601C080D180D6
:100D100096FE03C0612F70E002C06FEF7FEFC60147
:100D20000E9414098C01F92DFF7714C0560122E0AE
:100D3000A20EB11CF601C080D18096FE03C0612FC7
:100D400070E002C06FEF7FEFC6010E9409098C01BD
:100D5000F92DF0689F2EF3FD1AC0852D90E008173D
:100D60001907A8F4B70180E290E00E941F095A9485
:100D7000F4CFF60197FC859197FE81916F01B70141
:100D800090E00E941F0951105A9401501109011559
:100D9000110579F7F7C0843611F0893661F55601EF
:100DA00097FE09C024E0A20EB11CF601608171819A
:100DB000828193810AC0F2E0AF0EB11CF60160811E
:100DC0007181072E000C880B990BF92DFF769F2E51
:100DD00097FF09C090958095709561957F4F8F4FD3
:100DE0009F4FF0689F2E2AE030E0A3010E94710916
:100DF000C82EC6183FC0092D853721F40F7E2AE082
:100E000030E01DC0097F8F3691F018F4883559F015
:100E1000C3C0803719F0883711F0BEC0006104FFED
:100E200009C0046007C094FE08C0066006C028E040
:100E300030E005C020E130E002C020E132E05601A0
:100E400007FF09C084E0A80EB11CF6016081718122
:100E50008281938108C0F2E0AF0EB11CF60160817F
:100E6000718180E090E0A3010E947109C82EC6182C
:100E70000F77902E96FE0BC0092D0E7FC11650F4F1
:100E800094FE0AC092FC08C0092D0E7E05C0DC2C21
:100E9000092D03C0DC2C01C0D12E04FF0DC0FE01C2
:100EA000EC0DF11D8081803311F4097E09C002FF31
:100EB00006C0D394D39404C0802F867809F0D394CD
:100EC00003FD11C000FF06C01C2DD51480F4150DC4
:100ED0001D190DC0D51458F4B70180E290E00E94AE
:100EE0001F09D394F7CFD51410F45D1801C0512C0D
:100EF00004FF10C0B70180E390E00E941F0902FFC9
:100F000017C001FD03C088E790E002C088E590E0CB
:100F1000B7010CC0802F867859F001FF02C08BE228
:100F200001C080E207FD8DE2B70190E00E941F0939
:100F3000C11638F4B70180E390E00E941F091150F8
:100F4000F7CFCA94F301EC0DF11D8081B70190E059
:100F50000E941F09C110F5CF15C0F4E0F51560F52A
:100F600084E0581A93FE1FC0011127C02C8523FF6F
:100F70002AC008E610E0392D3071932EF8018491D3
:100F8000811124C0552009F4E4CCB70180E290E03F
:100F90000E941F095A94F6CFF7018681978126C0D7
:100FA0008FEF9FEF23C0B70180E290E00E941F09FE
:100FB0005A945110F8CFD8CF512CB701802F90E020
:100FC0000E941F09D3CF0CE610E0D5CF91108052BC
:100FD000B70190E00E941F090F5F1F4FCFCF23E0A2
:100FE000251510F483E0BDCF512CC0CF6096E2E10F
:100FF0000C9416082F923F924F925F926F927F92BD
:101000008F929F92AF92BF92CF92DF92EF92FF9218
:101010000F931F93CF93DF93CDB7DEB7CA1BDB0BC4
:101020000FB6F894DEBF0FBECDBF09942A88398869
:1010300048885F846E847D848C849B84AA84B98470
:10104000C884DF80EE80FD800C811B81AA81B9817C
:10105000CE0FD11D0FB6F894DEBF0FBECDBFED0190
:101060000895283008F027E03327DA01990F311D61
:1010700087FD916000966105710539F432602E5F3D
:101080003D9330E32A95E1F708959F3F30F0803893
:101090007105610509F03C5F3C5F3D93913008F0BC
:1010A0008068911DDF93CF931F930F93FF92EF9270
:1010B000192F987F9695E92F96959695E90FFF271A
:1010C000E653FF4F99273327EE24FF24A701E701BA
:1010D00005900894079428F4360FE71EF81E491F60
:1010E000511D660F771F881F991F0694A1F7059061
:1010F000079428F4E70EF81E491F561FC11D770FED
:10110000881F991F661F0694A1F70590079428F47D
:10111000F80E491F561FC71FD11D880F991F661F44
:10112000771F0694A1F70590079420F4490F561FE6
:10113000C71FD81F990F661F771F881F0694A9F72E
:1011400084911095177041F0D695C795579547959E
:10115000F794E7941A95C1F7E0E7F0E068941590EA
:10116000159135916591959105907FE27395E11800
:10117000F10A430B560BC90BD009C0F7E10CF11E65
:10118000431F561FC91FD01D7EF4703311F48A957A
:10119000E6CFE894015030F0080F0AF40027021758
:1011A00008F4202F2395022F7A3328F079E37D93DA
:1011B0002A95E9F710C07D932A9589F606949795AC
:1011C0006795379517951794E118F10A430B560B5D
:1011D000C90BD00998F023957E9173957A3308F066
:1011E00070E37C932013B8F77E9170617D9330F0AB
:1011F000839571E37D9370E32A95E1F71124EF90D5
:10120000FF900F911F91CF91DF91992787FD9095C6
:101210000895FC010590615070400110D8F7809549
:1012200090958E0F9F1F0895FC01615070400190B2
:101230000110D8F7809590958E0F9F1F08950F93FA
:101240001F93CF93DF93FB01238121FD03C08FEF19
:101250009FEF2CC022FF16C0468157812481358123
:101260004217530744F4A081B1819D012F5F3F4F86
:10127000318320838C93268137812F5F3F4F3783C3
:10128000268314C08B01EC01FB010084F185E02D65
:101290000995892BE1F6D80116968D919C911797A7
:1012A000019617969C938E931697CE01DF91CF915E
:1012B0001F910F910895A0E0B0E0E1E6F9E00C94F1
:1012C0000A08AE014B5F5F4FFA0161917191AF0166
:1012D00080911E0190911F010E947D04E2E00C9418
:1012E0002608FA01AA27283051F1203181F1E8942B
:1012F0006F936E7F6E5F7F4F8F4F9F4FAF4FB1E009
:101300003ED0B4E03CD0670F781F891F9A1FA11D03
:10131000680F791F8A1F911DA11D6A0F711D811D04
:10132000911DA11D20D009F468943F912AE0269FC9
:1013300011243019305D3193DEF6CF010895462F28
:101340004770405D4193B3E00FD0C9F7F6CF462F09
:101350004F70405D4A3318F0495D31FD4052419372
:1013600002D0A9F7EACFB4E0A6959795879577952F
:101370006795BA95C9F700976105710508959B01B6
:10138000AC010A2E06945795479537952795BA953F
:10139000C9F7620F731F841F951FA01D0895F99947
:1013A000FECF92BD81BDF89A992780B50895262F6A
:1013B000F999FECF1FBA92BD81BD20BD0FB6F8943A
:0E13C000FA9AF99A0FBE01960895F894FFCF9D
:1013CE0000000002000000008B03000000000A2550
:0C13DE00303258683D253032586800005D
:00000001FF
