:100000000C9435000C9452000C9452000C94520045
:100010000C9452000C9452000C9452000C94520018
:100020000C9452000C9452000C9452000C94520008
:100030000C9452000C9452000C9452000C945200F8
:100040000C9452000C9452000C9452000C945200E8
:100050000C9452000C9452000C9452000C945200D8
:100060000C9452000C945200850011241FBECFEF57
:10007000D8E0DEBFCDBF21E0A0E0B1E001C01D921D
:10008000A130B207E1F710E0C5E3D0E004C021974A
:10009000FE010E948C00C433D107C9F70E946A0098
:1000A0000C9492000C94000084B1806284B908958D
:1000B00085B18F7D85B9089585B1806285B9089530
:1000C000019739F46F3F7F4F21F480E091E00E9467
:1000D0005400089580E091E00E945C002FEF83EDD2
:1000E00090E3215080409040E1F700C0000080E0A4
:1000F00091E00E9458002FEF83ED90E32150804063
:100100009040E1F700C00000E5CF6FEF7FEF81E0A6
:1001100090E00E9460000895EE0FFF1F0590F4919B
:08012000E02D0994F894FFCFD3
:00000001FF
