:100000000C9434000C9451000C9451000C94510049
:100010000C9451000C9451000C9451000C9451001C
:100020000C9451000C9451000C9451000C9451000C
:100030000C9451000C9451000C9451000C945100FC
:100040000C9451000C9451000C9451000C945100EC
:100050000C9451000C9451000C9451000C945100DC
:100060000C9451000C94510011241FBECFEFD8E026
:10007000DEBFCDBF11E0A0E0B1E0ECE2FEE002C0E7
:1000800005900D92A430B107D9F721E0A4E0B1E0CA
:1000900001C01D92A032B207E1F70E94B9060C948C
:1000A00014070C9400006115710509F0A0C00097B9
:1000B00021F484B18E7F84B908958130910521F4B3
:1000C00084B18D7F84B908958230910521F484B183
:1000D0008B7F84B908958330910521F484B1877FA3
:1000E00084B908958430910521F484B18F7E84B958
:1000F00008958530910521F484B18F7D84B90895E8
:100100008630910521F484B18F7B84B908958730BE
:10011000910521F484B18F7784B9089588309105D1
:1001200021F487B18E7F87B908958930910521F434
:1001300087B18D7F87B908958A30910521F487B101
:100140008B7F87B908958B30910521F487B1877F24
:1001500087B908958C30910521F487B18F7E87B9D6
:1001600008958D30910521F487B18F7D87B9089569
:100170008E30910521F487B18F7B87B908958F3038
:10018000910521F48AB18E7F8AB908958031910555
:1001900021F48AB18D7F8AB908958131910521F4C6
:1001A0008AB18B7F8AB908958231910521F48AB191
:1001B000877F8AB908958331910521F48AB18F7EB2
:1001C0008AB908958431910521F48AB18F7D8AB965
:1001D00008958531910521F48AB18F7B8AB90895FC
:1001E000469709F0A6C08AB18F778AB90895613021
:1001F000710509F09EC0009721F484B1816084B933
:1002000008958130910521F484B1826084B9089504
:100210008230910521F484B1846084B908958330DB
:10022000910521F484B1886084B9089584309105E2
:1002300021F484B1806184B908958530910521F459
:1002400084B1806284B908958630910521F484B127
:10025000806484B908958730910521F484B1806861
:1002600084B908958830910521F487B1816087B9F8
:1002700008958930910521F487B1826087B9089586
:100280008A30910521F487B1846087B908958B3055
:10029000910521F487B1886087B908958C30910564
:1002A00021F487B1806187B908958D30910521F4DB
:1002B00087B1806287B908958E30910521F487B1A6
:1002C000806487B908958F30910521F48AB18160E7
:1002D0008AB908958031910521F48AB182608AB982
:1002E00008958131910521F48AB184608AB9089515
:1002F0008231910521F48AB188608AB908958331E9
:10030000910521F48AB180618AB9089584319105FB
:1003100021F48AB180628AB908958531910521F46A
:100320008AB180648AB90895469719F48AB18068C1
:100330008AB908956115710509F0A0C0009721F4EC
:1003400085B18E7F85B908958130910521F485B1FD
:100350008D7F85B908958230910521F485B18B7F19
:1003600085B908958330910521F485B1877F85B9DA
:1003700008958430910521F485B18F7E85B9089563
:100380008530910521F485B18F7D85B9089586303A
:10039000910521F485B18F7B85B90895873091054A
:1003A00021F485B18F7785B908958830910521F4BE
:1003B00088B18E7F88B908958930910521F488B17C
:1003C0008D7F88B908958A30910521F488B18B7F9B
:1003D00088B908958B30910521F488B1877F88B959
:1003E00008958C30910521F488B18F7E88B90895E5
:1003F0008D30910521F488B18F7D88B908958E30B4
:10040000910521F488B18F7B88B908958F309105CB
:1004100021F48BB18E7F8BB908958031910521F441
:100420008BB18D7F8BB908958131910521F48BB10A
:100430008B7F8BB908958231910521F48BB1877F31
:100440008BB908958331910521F48BB18F7E8BB9DF
:1004500008958431910521F48BB18F7D8BB9089576
:100460008531910521F48BB18F7B8BB90895469727
:1004700009F0A6C08BB18F778BB9089561307105F3
:1004800009F09EC0009721F485B1816085B9089577
:100490008130910521F485B1826085B9089582305B
:1004A000910521F485B1846085B908958330910563
:1004B00021F485B1886085B908958430910521F4CF
:1004C00085B1806185B908958530910521F485B1A4
:1004D000806285B908958630910521F485B18064E4
:1004E00085B908958730910521F485B1806885B973
:1004F00008958830910521F488B1816088B9089504
:100500008930910521F488B1826088B908958A30D4
:10051000910521F488B1846088B908958B309105E4
:1005200021F488B1886088B908958C30910521F450
:1005300088B1806188B908958D30910521F488B122
:10054000806288B908958E30910521F488B1806465
:1005500088B908958F30910521F48BB181608BB9F2
:1005600008958031910521F48BB182608BB9089593
:100570008131910521F48BB184608BB9089582316A
:10058000910521F48BB188608BB908958331910571
:1005900021F48BB180618BB908958431910521F4E8
:1005A0008BB180628BB908958531910521F48BB1AF
:1005B00080648BB90895469719F48BB180688BB924
:1005C0000895009729F483B1282F217030E09CC052
:1005D0008130910521F423B1227030E095C0823042
:1005E000910521F423B1247030E08EC08330910551
:1005F00021F423B1287030E087C08430910521F4C4
:1006000023B1207130E080C08530910521F423B101
:10061000207230E079C08630910521F423B1207436
:1006200030E072C08730910521F423B1207830E0AA
:100630006BC08830910529F486B1282F217030E0F5
:1006400063C08930910521F426B1227030E05CC08E
:100650008A30910521F426B1247030E055C08B30EA
:10066000910521F426B1287030E04EC08C30910500
:1006700021F426B1207130E047C08D30910521F47E
:1006800026B1207230E040C08E30910521F426B1B1
:10069000207430E039C08F30910529F489B1282FBA
:1006A000217030E031C08031910521F429B12270F0
:1006B00030E02AC08131910521F429B1247030E065
:1006C00023C08231910521F429B1287030E01CC08B
:1006D0008331910521F429B1207130E015C08431B6
:1006E000910521F429B1207230E00EC085319105C9
:1006F00021F429B1207430E007C0469721F429B1D4
:10070000207830E001C00895822F932F0895CF9371
:10071000C82F80FF09C061E070E0809106019091D0
:1007200007010E949A0108C060E070E08091060114
:10073000909107010E949A01C1FF09C061E070E039
:1007400080910401909105010E949A0108C060E027
:1007500070E080910401909105010E949A01C2FF0E
:1007600009C061E070E080910E0190910F010E943C
:100770009A0108C060E070E080910E0190910F0135
:100780000E949A01C3FF09C061E070E080910A01F4
:1007900090910B010E949A0108C060E070E0809186
:1007A0000A0190910B010E949A01CF910895CF9375
:1007B000C82F60E070E080910C0190910D010E94C3
:1007C0009A018C2F0E94870361E070E080910801FC
:1007D000909109010E949A018FE99FE00197F1F73A
:1007E00000C0000060E070E0809108019091090174
:1007F0000E949A018FE99FE00197F1F700C0000085
:10080000CF910895CF93813061F480E8860FC62F91
:10081000CF7082958F700E94D7038C2F0E94D703D0
:100820000DC0823059F480EC860FC62FCF708295B0
:100830008F700E94D7038C2F0E94D703CF91089509
:10084000EF92FF920F931F939093090180930801F9
:1008500070930D0160930C015093070140930601C2
:10086000309305012093040110930F0100930E01B2
:10087000F0920B01E0920A0161E070E00E945300E7
:1008800061E070E080910C0190910D010E94530095
:1008900061E070E080910601909107010E94530091
:1008A00061E070E080910401909105010E94530085
:1008B00061E070E080910E0190910F010E94530061
:1008C00061E070E080910A0190910B010E94530059
:1008D00061E070E080910801909109010E949A0105
:1008E00061E070E080910C0190910D010E949A01ED
:1008F00061E070E080910601909107010E949A01E9
:1009000061E070E080910401909105010E949A01DC
:1009100061E070E080910E0190910F010E949A01B8
:1009200061E070E080910A0190910B010E949A01B0
:100930002FEF89EF90E0215080409040E1F700C018
:10094000000083E00E94D7038FE19EE40197F1F756
:1009500000C0000083E00E94D7038FED9BEA01975F
:10096000F1F700C0000083E00E94D70382E00E94FC
:10097000D70382E00E94D70388E00E94D70380E07B
:100980000E94D7038CE00E94D70380E00E94D70327
:1009900086E00E94D7031F910F91FF90EF9008957A
:1009A000CF93DF93D82FDF70C82FC07F61E070E056
:1009B00080910C0190910D010E949A018C2F8295DB
:1009C0008F700E94870361E070E080910801909130
:1009D00009010E949A018FE99FE00197F1F700C099
:1009E000000060E070E080910801909109010E9490
:1009F0009A018FE99FE00197F1F700C000008D2F69
:100A00000E94870361E070E08091080190910901E4
:100A10000E949A018FE99FE00197F1F700C0000062
:100A200060E070E080910801909109010E949A01B4
:100A30008FE99FE00197F1F700C00000DF91CF91AF
:100A400008950F931F93CF93DF938C01C0E0D0E004
:100A500003C00E94D0042196F801EC0FFD1F808195
:100A60008111F7CFDF91CF911F910F910895AF9230
:100A7000BF92CF92DF92EF92FF920F931F939093CA
:100A80001B0180931A017093150160931401509318
:100A90001301409312013093170120931601109314
:100AA0001D0100931C01F0921901E0921801D092EF
:100AB0001101C0921001B0921F01A0921E0160E0CE
:100AC00070E00E94530060E070E08091140190910A
:100AD00015010E94530060E070E080911201909136
:100AE00013010E94530060E070E080911601909124
:100AF00017010E94530061E070E080911C01909109
:100B00001D010E94530061E070E0809118019091F6
:100B100019010E94530061E070E0809110019091F2
:100B200011010E94530061E070E080911E019091DC
:100B30001F010E94530061E070E080911C019091C0
:100B40001D010E949A0161E070E08091180190916E
:100B500019010E949A0161E070E08091100190916A
:100B600011010E949A0161E070E080911E01909154
:100B70001F010E949A011F910F91FF90EF90DF904B
:100B8000CF90BF90AF900895CF932FEF35EA4EE00E
:100B9000215030404040E1F700C00000892B11F0A7
:100BA000C4E701C0C6E660E070E080911C0190914E
:100BB0001D010E949A0180911A0190911B010E94CF
:100BC000E102892BC9F080911401909115010E94D6
:100BD000E102892B99F080911201909113010E94FA
:100BE000E102892B69F080911601909117010E9412
:100BF000E102892B39F007C0C1E005C0C4E003C0A1
:100C0000C7E001C0CAE261E070E080911C019091F0
:100C10001D010E949A0160E070E08091180190919E
:100C200019010E949A0180911A0190911B010E9462
:100C3000E102892BC9F080911401909115010E9465
:100C4000E102892B99F080911201909113010E9489
:100C5000E102892B69F080911601909117010E94A1
:100C6000E102892B39F007C0C2E005C0C5E003C02E
:100C7000C8E001C0C0E061E070E08091180190918F
:100C800019010E949A0160E070E08091100190913A
:100C900011010E949A0180911A0190911B010E94FA
:100CA000E102892BC9F080911401909115010E94F5
:100CB000E102892B99F080911201909113010E9419
:100CC000E102892B69F080911601909117010E9431
:100CD000E102892B39F007C0C3E005C0C6E003C0BC
:100CE000C9E001C0C3E261E070E080911001909121
:100CF00011010E949A0160E070E080911E019091C4
:100D00001F010E949A0180911A0190911B010E947B
:100D1000E102892BC9F080911401909115010E9484
:100D2000E102892B99F080911201909113010E94A8
:100D3000E102892B69F080911601909117010E94C0
:100D4000E102892B39F007C0C1E405C0C2E403C049
:100D5000C3E401C0C4E461E070E080911E019091A1
:100D60001F010E949A01C43709F41DCF8C2FCF9127
:100D700008950F2EF3E0AF2EB12CF02D6894CC2403
:100D8000C1F8D12CEE24E394F12C00E010E02BE02C
:100D900030E04AE050E069E070E088E090E00E94D6
:100DA00037050F2EF1E1EF2EF12CF02D02E110E0CE
:100DB00023E130E044E150E066E170E085E190E05D
:100DC0000E94200460E070E08EE090E00E945300FA
:100DD00061E070E085E090E00E94530081E090E0E7
:100DE0000E94C40581110FC060E082E00E940204ED
:100DF00080E091E00E94210560E070E085E090E0F5
:100E00000E949A01EBCF813049F760E082E00E94B6
:100E1000020482E091E00E94210561E070E085E03B
:0C0E200090E00E949A01DACFF894FFCF16
:040E2C003000310061
:00000001FF
